:020000040800F2
:10000000008001207D060008CD060008CD0600080E
:10001000CD060008CD060008CD060008000000004F
:10002000000000000000000000000000CD060008F5
:100030000000000000000000CD06000829040008B0
:10004000CD060008CD060008CD060008CD06000844
:10005000CD060008CD060008CD060008CD06000834
:10006000CD060008CD060008CD060008CD06000824
:10007000CD060008CD060008CD060008CD06000814
:10008000CD060008CD060008CD060008CD06000804
:10009000CD060008CD060008CD060008CD060008F4
:1000A000CD060008CD060008CD060008CD060008E4
:1000B000CD060008CD060008CD060008CD060008D4
:1000C000CD060008CD060008CD060008CD060008C4
:1000D000CD060008CD060008B9040008CD060008CA
:1000E0005D060008CD060008CD060008CD06000814
:1000F000CD060008CD060008CD060008CD06000894
:10010000CD060008CD060008CD060008CD06000883
:10011000CD060008CD060008CD060008CD06000873
:10012000CD060008CD060008CD060008CD06000863
:10013000CD060008CD060008CD060008CD06000853
:10014000CD060008CD060008CD060008CD06000843
:10015000CD060008CD060008CD060008CD06000833
:10016000CD060008CD060008CD060008CD06000823
:10017000CD060008CD060008CD060008CD06000813
:04018000CD060008A0
:1001840010B5054C237833B9044B13B10448AFF3CD
:1001940000800123237010BD040000200000000033
:1001A400D006000808B5034B1BB103490348AFF35D
:1001B400008008BD0000000008000020D0060008F0
:1001C40070B50D4D0D4C641BA4100026A64209D138
:1001D4000B4D0C4C00F07AFA641BA4100026A642C6
:1001E40005D170BD55F8043B98470136EEE755F844
:1001F400043B98470136F2E788070008880700089F
:10020400880700089007000870477047024B13B135
:10021400024800F005B870470000000031020008F1
:10022400002301461A46184600F014B838B5074DA5
:10023400074C641BA4101CB9BDE8384000F04CBA4C
:10024400013C55F824309847F5E700BF90070008B3
:10025400940700082DE9F047DFF874A00646DAF8A1
:10026400000098460F469146FFF7CEFF164B1C68D8
:100274000CB9164C1C606568DAF800001F2D05DD0A
:10028400FFF7C3FF4FF0FF30BDE8F0879EB104EBEA
:1002940085010122C1F88890D4F88831AA4013431B
:1002A400C4F88831022EC1F8088102BFD4F88C3119
:1002B4001343C4F88C316B1C0235636044F8257019
:1002C400FFF7A3FF0020DFE7240000202800002020
:1002D4000000002008B50A4B1B78012B00D008BD94
:1002E40000F09AF8074B1B68C01A41F28733984212
:1002F400F5D9002000F070F9014B00221A70EEE7E6
:10030400BC010020B801002008B5012806D002284D
:1003140012D04F281AD0432826D008BD174800F021
:10032400B1F8012000F058F9154B01221A7000F0C1
:1003340073F8144B1860F0E7134800F0A3F8012099
:1003440000F04AF90E4B02221A70E6E70F4800F05B
:1003540099F8012000F040F9094B01221A7000F0CD
:100364005BF8084B1860D8E7094800F08BF80020C8
:1003740000F032F9024B00221A70CEE7E8060008BA
:10038400BC010020B8010020FC060008100700088A
:100394002C07000838B500F035F800F0DFF800F05D
:1003A40049F8154800F06EF8002414E000F034F821
:1003B400044600F020F914E0104800F063F82846E1
:1003C400FFF7A2FF12E00E4800F05CF82846FFF7A2
:1003D4009BFFFFF77FFF00F01FF8031BB3F5FA7FC5
:1003E400E4D200F00FF905460028E5D100F05AF8F0
:1003F40005460028E7D1ECE7480700086007000835
:10040400740700084FF0E02304221A6140F69F723B
:100414005A6107221A617047014B1868704700BF80
:10042400C0010020024A136801331360704700BF03
:10043400C001002008B500F057F80F4A936D43F44B
:10044400003393650D4B1A6822F001021A6040F2E2
:10045400A112DA601A6842F00C021A601A6842F0BB
:1004640001021A601A6842F020021A60044A5368B2
:1004740043F04003536008BD0010024000440040B4
:1004840000E100E007E0064BDB6913F0800FFAD0CF
:100494000130034B9A620278002AF4D1704700BFFE
:1004A40000440040024B187800221A70704700BFC5
:1004B400C40100200A4BDB6913F0200F06D0084B5F
:1004C4005B6ADBB24F2B02D0432B04D07047054B41
:1004D4004F221A707047034B43221A70F6E700BF8D
:1004E40000440040C40100201B4AD36C43F00103C4
:1004F400D3644FF090431A6822F030021A601A68ED
:1005040042F020021A601A6822F0C0021A601A68C7
:1005140042F080021A601A6A22F470621A621A6A3D
:1005240042F4E0621A621A6A22F470421A621A6A87
:1005340042F4E0421A629A6842F030029A609A6881
:1005440042F0C0029A60DA6822F03002DA60DA68B7
:1005540022F0C002DA607047001002401C4BDA6CD3
:1005640042F00502DA644FF09042116821F44061D0
:100574001160116841F48061116016490A6822F023
:1005840040620A601A6E42F001021A66A3F58833CB
:100594005A6922F0F0025A615A6942F020025A6103
:1005A40003F58063DA6842F40052DA609A6822F450
:1005B40000529A601A6842F400521A604FF0E02226
:1005C400D2F8043143F48073C2F80431704700BF99
:1005D400001002400008004830B14FF090425369C7
:1005E40043F40063536170474FF09042536923F41E
:1005F4000063536170474FF09042536983F02003C6
:1006040053617047024B187800221A70704700BF7C
:10061400CC01002008B5FFF7FFFE0D4B1B68C01A84
:10062400312800D808BDFFF7F7FE094B1B68C01A34
:10063400B0F5FA7F07D9074B01221A70FFF7ECFED9
:10064400034B1860EEE7034B02221A70F6E700BF73
:10065400C8010020CC01002008B5064B5B6913F4E7
:10066400005F00D108BD034B4FF400525A61FFF7FD
:10067400D1FFF7E7000401400D488546AFF3008041
:100684000C480D490D4A002302E0D458C4500433E9
:10069400C4188C42F9D30A4A0A4C002301E01360BF
:1006A4000432A242FBD3FFF78BFDFFF773FEFEE794
:1006B40000800120000000200400002094070008AE
:1006C40004000020D0010020FEE70000F8B500BFC0
:1006D400F8BC08BC9E467047F8B500BFF8BC08BC1F
:0406E4009E46704777
:1006E8005072657369C3B36E2073696D706C650D64
:1006F8000A0000005072657369C3B36E20646F62AC
:100708006C650D0A00000000436F6D616E646F2018
:10071800616272697220726563696269646F0D0A49
:1007280000000000436F6D616E646F206365727234
:10073800617220726563696269646F0D0A00000066
:1007480053797374656D20496E697469616C697A4F
:1007580065640D0A00000000427574746F6E2050C5
:100768007265737365640D0A00000000436F6D6D58
:10077800616E642052656365697665640D0A0000E0
:0807880011020008A90100089C
:0407900085010008D7
:040794002000002021
:040000050800067D6C
:00000001FF
